{"abi":[{"type":"constructor","inputs":[{"name":"_depth","type":"uint32","internalType":"uint32"},{"name":"_hasher","type":"address","internalType":"contract Poseidon2"}],"stateMutability":"nonpayable"},{"type":"function","name":"ROOT_HISTORY_SIZE","inputs":[],"outputs":[{"name":"","type":"uint32","internalType":"uint32"}],"stateMutability":"view"},{"type":"function","name":"i_depth","inputs":[],"outputs":[{"name":"","type":"uint32","internalType":"uint32"}],"stateMutability":"view"},{"type":"function","name":"i_hasher","inputs":[],"outputs":[{"name":"","type":"address","internalType":"contract Poseidon2"}],"stateMutability":"view"},{"type":"function","name":"isKnownRoot","inputs":[{"name":"_root","type":"bytes32","internalType":"bytes32"}],"outputs":[{"name":"","type":"bool","internalType":"bool"}],"stateMutability":"view"},{"type":"function","name":"s_cachedSubtrees","inputs":[{"name":"","type":"uint256","internalType":"uint256"}],"outputs":[{"name":"","type":"bytes32","internalType":"bytes32"}],"stateMutability":"view"},{"type":"function","name":"s_currentRootIndex","inputs":[],"outputs":[{"name":"","type":"uint32","internalType":"uint32"}],"stateMutability":"view"},{"type":"function","name":"s_nextLeafIndex","inputs":[],"outputs":[{"name":"","type":"uint32","internalType":"uint32"}],"stateMutability":"view"},{"type":"function","name":"s_root","inputs":[{"name":"","type":"uint256","internalType":"uint256"}],"outputs":[{"name":"","type":"bytes32","internalType":"bytes32"}],"stateMutability":"view"},{"type":"function","name":"zeros","inputs":[{"name":"i","type":"uint256","internalType":"uint256"}],"outputs":[{"name":"","type":"bytes32","internalType":"bytes32"}],"stateMutability":"pure"},{"type":"error","name":"IncrementalMerkleTree_DepthShoulBeLessThan32","inputs":[]},{"type":"error","name":"IncrementalMerkleTree_DepthShouldBeGreaterThanZero","inputs":[]},{"type":"error","name":"IncrementalMerkleTree_MerkleTreeFull","inputs":[{"name":"_nextLeafIndex","type":"uint32","internalType":"uint32"}]},{"type":"error","name":"IncrementalMerkleTree__IndexOutOfBounds","inputs":[{"name":"depth","type":"uint256","internalType":"uint256"}]}],"bytecode":{"object":"0x60c060405234801561000f575f5ffd5b5060405161153038038061153083398181016040528101906100319190610852565b5f8263ffffffff1603610070576040517fa602bc1d00000000000000000000000000000000000000000000000000000000815260040160405180910390fd5b60208263ffffffff16106100b0576040517fa0eb709e00000000000000000000000000000000000000000000000000000000815260040160405180910390fd5b8163ffffffff1660808163ffffffff16815250508073ffffffffffffffffffffffffffffffffffffffff1660a08173ffffffffffffffffffffffffffffffffffffffff168152505061010d8263ffffffff1661012860201b60201c565b5f5f5f81526020019081526020015f208190555050506108c1565b5f5f820361015a577f0d823319708ab99ec915efd4f7e03d11ca1790918e8f04cd14100aceca2aa9ff5f1b90506107a5565b6001820361018c577f170a9598425eb05eb8dc06986c6afc717811e874326a79576c02d338bdf14f135f1b90506107a5565b600282036101be577f273b1a40397b618dac2fc66ceb71399a3e1a60341e546e053cbfa5995e824caf5f1b90506107a5565b600382036101f0577f16bf9b1fb2dfa9d88cfb1752d6937a1594d257c2053dff3cb971016bfcffe2a15f1b90506107a5565b60048203610222577f1288271e1f93a29fa6e748b7468a77a9b8fc3db6b216ce5fc2601fc3e9bd6b365f1b90506107a5565b60058203610254577f1d47548adec1068354d163be4ffa348ca89f079b039c9191378584abd79edeca5f1b90506107a5565b60068203610286577f0b98a89e6827ef697b8fb2e280a2342d61db1eb5efc229f5f4a77fb333b80bef5f1b90506107a5565b600782036102b8577f231555e37e6b206f43fdcd4d660c47442d76aab1ef552aef6db45f3f9cf2e9555f1b90506107a5565b600882036102ea577f03d0dc8c92e2844abcc5fdefe8cb67d93034de0862943990b09c6b8e3fa27a865f1b90506107a5565b6009820361031c577f1d51ac275f47f10e592b8e690fd3b28a76106893ac3e60cd7b2a3a443f4e83555f1b90506107a5565b600a820361034e577f16b671eb844a8e4e463e820e26560357edee4ecfdbf5d7b0a28799911505088d5f1b90506107a5565b600b8203610380577f115ea0c2f132c5914d5bb737af6eed04115a3896f0d65e12e761ca560083da155f1b90506107a5565b600c82036103b2577f139a5b42099806c76efb52da0ec1dde06a836bf6f87ef7ab4bac7d00637e28f05f1b90506107a5565b600d82036103e4577f0804853482335a6533eb6a4ddfc215a08026db413d247a7695e807e38debea8e5f1b90506107a5565b600e8203610416577f2f0b264ab5f5630b591af93d93ec2dfed28eef017b251e40905cdf79836898035f1b90506107a5565b600f8203610448577f170fc161bf1b9610bf196c173bdae82c4adfd93888dc317f5010822a3ba9ebee5f1b90506107a5565b6010820361047a577f0b2e7665b17622cc0243b6fa35110aa7dd0ee3cc9409650172aa786ca59714395f1b90506107a5565b601182036104ac577f12d5a033cbeff854c5ba0c5628ac4628104be6ab370699a1b2b4209e518b0ac55f1b90506107a5565b601282036104de577f1bc59846eb7eafafc85ba9a99a89562763735322e4255b7c1788a8fe8b90bf5d5f1b90506107a5565b60138203610510577f1b9421fbd79f6972a348a3dd4721781ec25a5d8d27342942ae00aba80a3904d45f1b90506107a5565b60148203610542577f087fde1c4c9c27c347f347083139eee8759179d255ec8381c02298d3d6ccd2335f1b90506107a5565b60158203610574577f1e26b1884cb500b5e6bbfdeedbdca34b961caf3fa9839ea794bfc7f87d10b3f15f1b90506107a5565b601682036105a6577f09fc1a538b88bda55a53253c62c153e67e8289729afd9b8bfd3f46f5eecd5a725f1b90506107a5565b601782036105d8577f14cd0edec3423652211db5210475a230ca4771cd1e45315bcd6ea640f14077e25f1b90506107a5565b6018820361060a577f1d776a76bc76f4305ef0b0b27a58a9565864fe1b9f2a198e8247b3e599e036ca5f1b90506107a5565b6019820361063c577f1f93e3103fed2d3bd056c3ac49b4a0728578be33595959788fa25514cdb5d42f5f1b90506107a5565b601a820361066e577f138b0576ee7346fb3f6cfb632f92ae206395824b9333a183c15470404c977a3b5f1b90506107a5565b601b82036106a0577f0745de8522abfcd24bd50875865592f73a190070b4cb3d8976e3dbff8fdb7f3d5f1b90506107a5565b601c82036106d2577f2ffb8c798b9dd2645e9187858cb92a86c86dcd1138f5d610c33df2696f5f68605f1b90506107a5565b601d8203610704577f2612a1395168260c9999287df0e3c3f1b0d8e008e90cd15941e4c2df08a68a5a5f1b90506107a5565b601e8203610736577f10ebedce66a910039c8edb2cd832d6a9857648ccff5e99b5d08009b44b088edf5f1b90506107a5565b601f8203610768577f213fb841f9de06958cf4403477bdbff7c59d6249daabfee147f853db7c8080825f1b90506107a5565b816040517f76de023800000000000000000000000000000000000000000000000000000000815260040161079c91906108a8565b60405180910390fd5b919050565b5f5ffd5b5f63ffffffff82169050919050565b6107c6816107ae565b81146107d0575f5ffd5b50565b5f815190506107e1816107bd565b92915050565b5f73ffffffffffffffffffffffffffffffffffffffff82169050919050565b5f610810826107e7565b9050919050565b5f61082182610806565b9050919050565b61083181610817565b811461083b575f5ffd5b50565b5f8151905061084c81610828565b92915050565b5f5f60408385031215610868576108676107aa565b5b5f610875858286016107d3565b92505060206108868582860161083e565b9150509250929050565b5f819050919050565b6108a281610890565b82525050565b5f6020820190506108bb5f830184610899565b92915050565b60805160a051610c4e6108e25f395f6102bd01525f6102e10152610c4e5ff3fe608060405234801561000f575f5ffd5b5060043610610091575f3560e01c806373d732021161006457806373d732021461011f578063760207111461013d578063cd87a3b41461016d578063e82955881461018b578063ed7cf2df146101bb57610091565b806357f657061461009557806359f41a81146100b35780636d9833e3146100d1578063705f032f14610101575b5f5ffd5b61009d6101eb565b6040516100aa91906109d5565b60405180910390f35b6100bb610200565b6040516100c891906109d5565b60405180910390f35b6100eb60048036038101906100e69190610a25565b610216565b6040516100f89190610a6a565b60405180910390f35b6101096102bb565b6040516101169190610afd565b60405180910390f35b6101276102df565b60405161013491906109d5565b60405180910390f35b61015760048036038101906101529190610b49565b610303565b6040516101649190610b83565b60405180910390f35b610175610317565b60405161018291906109d5565b60405180910390f35b6101a560048036038101906101a09190610b49565b61031c565b6040516101b29190610b83565b60405180910390f35b6101d560048036038101906101d09190610b49565b61099e565b6040516101e29190610b83565b60405180910390f35b60015f9054906101000a900463ffffffff1681565b600160049054906101000a900463ffffffff1681565b5f5f60015f9054906101000a900463ffffffff1690505f8190505f5f1b8403610243575f925050506102b6565b5b835f5f8363ffffffff1681526020019081526020015f20540361026c576001925050506102b6565b5f8163ffffffff160361027e57601e90505b808061028990610bc9565b91505060015f9054906101000a900463ffffffff1663ffffffff168163ffffffff1603610244575f925050505b919050565b7f000000000000000000000000000000000000000000000000000000000000000081565b7f000000000000000000000000000000000000000000000000000000000000000081565b5f602052805f5260405f205f915090505481565b601e81565b5f5f820361034e577f0d823319708ab99ec915efd4f7e03d11ca1790918e8f04cd14100aceca2aa9ff5f1b9050610999565b60018203610380577f170a9598425eb05eb8dc06986c6afc717811e874326a79576c02d338bdf14f135f1b9050610999565b600282036103b2577f273b1a40397b618dac2fc66ceb71399a3e1a60341e546e053cbfa5995e824caf5f1b9050610999565b600382036103e4577f16bf9b1fb2dfa9d88cfb1752d6937a1594d257c2053dff3cb971016bfcffe2a15f1b9050610999565b60048203610416577f1288271e1f93a29fa6e748b7468a77a9b8fc3db6b216ce5fc2601fc3e9bd6b365f1b9050610999565b60058203610448577f1d47548adec1068354d163be4ffa348ca89f079b039c9191378584abd79edeca5f1b9050610999565b6006820361047a577f0b98a89e6827ef697b8fb2e280a2342d61db1eb5efc229f5f4a77fb333b80bef5f1b9050610999565b600782036104ac577f231555e37e6b206f43fdcd4d660c47442d76aab1ef552aef6db45f3f9cf2e9555f1b9050610999565b600882036104de577f03d0dc8c92e2844abcc5fdefe8cb67d93034de0862943990b09c6b8e3fa27a865f1b9050610999565b60098203610510577f1d51ac275f47f10e592b8e690fd3b28a76106893ac3e60cd7b2a3a443f4e83555f1b9050610999565b600a8203610542577f16b671eb844a8e4e463e820e26560357edee4ecfdbf5d7b0a28799911505088d5f1b9050610999565b600b8203610574577f115ea0c2f132c5914d5bb737af6eed04115a3896f0d65e12e761ca560083da155f1b9050610999565b600c82036105a6577f139a5b42099806c76efb52da0ec1dde06a836bf6f87ef7ab4bac7d00637e28f05f1b9050610999565b600d82036105d8577f0804853482335a6533eb6a4ddfc215a08026db413d247a7695e807e38debea8e5f1b9050610999565b600e820361060a577f2f0b264ab5f5630b591af93d93ec2dfed28eef017b251e40905cdf79836898035f1b9050610999565b600f820361063c577f170fc161bf1b9610bf196c173bdae82c4adfd93888dc317f5010822a3ba9ebee5f1b9050610999565b6010820361066e577f0b2e7665b17622cc0243b6fa35110aa7dd0ee3cc9409650172aa786ca59714395f1b9050610999565b601182036106a0577f12d5a033cbeff854c5ba0c5628ac4628104be6ab370699a1b2b4209e518b0ac55f1b9050610999565b601282036106d2577f1bc59846eb7eafafc85ba9a99a89562763735322e4255b7c1788a8fe8b90bf5d5f1b9050610999565b60138203610704577f1b9421fbd79f6972a348a3dd4721781ec25a5d8d27342942ae00aba80a3904d45f1b9050610999565b60148203610736577f087fde1c4c9c27c347f347083139eee8759179d255ec8381c02298d3d6ccd2335f1b9050610999565b60158203610768577f1e26b1884cb500b5e6bbfdeedbdca34b961caf3fa9839ea794bfc7f87d10b3f15f1b9050610999565b6016820361079a577f09fc1a538b88bda55a53253c62c153e67e8289729afd9b8bfd3f46f5eecd5a725f1b9050610999565b601782036107cc577f14cd0edec3423652211db5210475a230ca4771cd1e45315bcd6ea640f14077e25f1b9050610999565b601882036107fe577f1d776a76bc76f4305ef0b0b27a58a9565864fe1b9f2a198e8247b3e599e036ca5f1b9050610999565b60198203610830577f1f93e3103fed2d3bd056c3ac49b4a0728578be33595959788fa25514cdb5d42f5f1b9050610999565b601a8203610862577f138b0576ee7346fb3f6cfb632f92ae206395824b9333a183c15470404c977a3b5f1b9050610999565b601b8203610894577f0745de8522abfcd24bd50875865592f73a190070b4cb3d8976e3dbff8fdb7f3d5f1b9050610999565b601c82036108c6577f2ffb8c798b9dd2645e9187858cb92a86c86dcd1138f5d610c33df2696f5f68605f1b9050610999565b601d82036108f8577f2612a1395168260c9999287df0e3c3f1b0d8e008e90cd15941e4c2df08a68a5a5f1b9050610999565b601e820361092a577f10ebedce66a910039c8edb2cd832d6a9857648ccff5e99b5d08009b44b088edf5f1b9050610999565b601f820361095c577f213fb841f9de06958cf4403477bdbff7c59d6249daabfee147f853db7c8080825f1b9050610999565b816040517f76de02380000000000000000000000000000000000000000000000000000000081526004016109909190610bff565b60405180910390fd5b919050565b600281602081106109ad575f80fd5b015f915090505481565b5f63ffffffff82169050919050565b6109cf816109b7565b82525050565b5f6020820190506109e85f8301846109c6565b92915050565b5f5ffd5b5f819050919050565b610a04816109f2565b8114610a0e575f5ffd5b50565b5f81359050610a1f816109fb565b92915050565b5f60208284031215610a3a57610a396109ee565b5b5f610a4784828501610a11565b91505092915050565b5f8115159050919050565b610a6481610a50565b82525050565b5f602082019050610a7d5f830184610a5b565b92915050565b5f73ffffffffffffffffffffffffffffffffffffffff82169050919050565b5f819050919050565b5f610ac5610ac0610abb84610a83565b610aa2565b610a83565b9050919050565b5f610ad682610aab565b9050919050565b5f610ae782610acc565b9050919050565b610af781610add565b82525050565b5f602082019050610b105f830184610aee565b92915050565b5f819050919050565b610b2881610b16565b8114610b32575f5ffd5b50565b5f81359050610b4381610b1f565b92915050565b5f60208284031215610b5e57610b5d6109ee565b5b5f610b6b84828501610b35565b91505092915050565b610b7d816109f2565b82525050565b5f602082019050610b965f830184610b74565b92915050565b7f4e487b71000000000000000000000000000000000000000000000000000000005f52601160045260245ffd5b5f610bd3826109b7565b91505f8203610be557610be4610b9c565b5b600182039050919050565b610bf981610b16565b82525050565b5f602082019050610c125f830184610bf0565b9291505056fea2646970667358221220c4c9b557617e18b560733c223fb119503618a52273a30e7e2832e31e466b1bce64736f6c634300081e0033","linkReferences":{}},"methodIdentifiers":{"ROOT_HISTORY_SIZE()":"cd87a3b4","i_depth()":"73d73202","i_hasher()":"705f032f","isKnownRoot(bytes32)":"6d9833e3","s_cachedSubtrees(uint256)":"ed7cf2df","s_currentRootIndex()":"57f65706","s_nextLeafIndex()":"59f41a81","s_root(uint256)":"76020711","zeros(uint256)":"e8295588"},"id":22}