{"abi":[{"type":"constructor","inputs":[{"name":"_verifier","type":"address","internalType":"contract IVerifier"},{"name":"_merkleTreedepth","type":"uint32","internalType":"uint32"},{"name":"_hasher","type":"address","internalType":"contract Poseidon2"}],"stateMutability":"nonpayable"},{"type":"function","name":"DENOMINATION","inputs":[],"outputs":[{"name":"","type":"uint256","internalType":"uint256"}],"stateMutability":"view"},{"type":"function","name":"ROOT_HISTORY_SIZE","inputs":[],"outputs":[{"name":"","type":"uint32","internalType":"uint32"}],"stateMutability":"view"},{"type":"function","name":"deposit","inputs":[{"name":"_commitment","type":"bytes32","internalType":"bytes32"}],"outputs":[],"stateMutability":"payable"},{"type":"function","name":"i_depth","inputs":[],"outputs":[{"name":"","type":"uint32","internalType":"uint32"}],"stateMutability":"view"},{"type":"function","name":"i_hasher","inputs":[],"outputs":[{"name":"","type":"address","internalType":"contract Poseidon2"}],"stateMutability":"view"},{"type":"function","name":"i_verifier","inputs":[],"outputs":[{"name":"","type":"address","internalType":"contract IVerifier"}],"stateMutability":"view"},{"type":"function","name":"isKnownRoot","inputs":[{"name":"_root","type":"bytes32","internalType":"bytes32"}],"outputs":[{"name":"","type":"bool","internalType":"bool"}],"stateMutability":"view"},{"type":"function","name":"s_cachedSubtrees","inputs":[{"name":"","type":"uint256","internalType":"uint256"}],"outputs":[{"name":"","type":"bytes32","internalType":"bytes32"}],"stateMutability":"view"},{"type":"function","name":"s_currentRootIndex","inputs":[],"outputs":[{"name":"","type":"uint32","internalType":"uint32"}],"stateMutability":"view"},{"type":"function","name":"s_nextLeafIndex","inputs":[],"outputs":[{"name":"","type":"uint32","internalType":"uint32"}],"stateMutability":"view"},{"type":"function","name":"s_root","inputs":[{"name":"","type":"uint256","internalType":"uint256"}],"outputs":[{"name":"","type":"bytes32","internalType":"bytes32"}],"stateMutability":"view"},{"type":"function","name":"withdraw","inputs":[{"name":"_proof","type":"bytes","internalType":"bytes"},{"name":"_root","type":"bytes32","internalType":"bytes32"},{"name":"_nullifierHash","type":"bytes32","internalType":"bytes32"},{"name":"_recipient","type":"address","internalType":"address payable"}],"outputs":[],"stateMutability":"nonpayable"},{"type":"function","name":"zeros","inputs":[{"name":"i","type":"uint256","internalType":"uint256"}],"outputs":[{"name":"","type":"bytes32","internalType":"bytes32"}],"stateMutability":"pure"},{"type":"event","name":"Deposit","inputs":[{"name":"commitment","type":"bytes32","indexed":true,"internalType":"bytes32"},{"name":"insertedIndex","type":"uint32","indexed":false,"internalType":"uint32"},{"name":"time","type":"uint256","indexed":false,"internalType":"uint256"}],"anonymous":false},{"type":"event","name":"Withdrawal","inputs":[{"name":"recipient","type":"address","indexed":true,"internalType":"address"},{"name":"nullifierHash","type":"bytes32","indexed":false,"internalType":"bytes32"}],"anonymous":false},{"type":"error","name":"IncrementalMerkleTree_DepthShoulBeLessThan32","inputs":[]},{"type":"error","name":"IncrementalMerkleTree_DepthShouldBeGreaterThanZero","inputs":[]},{"type":"error","name":"IncrementalMerkleTree_MerkleTreeFull","inputs":[{"name":"_nextLeafIndex","type":"uint32","internalType":"uint32"}]},{"type":"error","name":"IncrementalMerkleTree__IndexOutOfBounds","inputs":[{"name":"depth","type":"uint256","internalType":"uint256"}]},{"type":"error","name":"Mixer_CommitmentAlreadyAdded","inputs":[{"name":"commitment","type":"bytes32","internalType":"bytes32"}]},{"type":"error","name":"Mixer_DepositAmountNotCorrect","inputs":[{"name":"amountSent","type":"uint256","internalType":"uint256"},{"name":"expectedAmount","type":"uint256","internalType":"uint256"}]},{"type":"error","name":"Mixer_InvalidProof","inputs":[]},{"type":"error","name":"Mixer_NullifierAlreadyUsed","inputs":[{"name":"nullifierHash","type":"bytes32","internalType":"bytes32"}]},{"type":"error","name":"Mixer_PaymentFailed","inputs":[{"name":"recipient","type":"address","internalType":"address"},{"name":"amount","type":"uint256","internalType":"uint256"}]},{"type":"error","name":"Mixer_UnknownRoot","inputs":[{"name":"root","type":"bytes32","internalType":"bytes32"}]}],"bytecode":{"object":"0x60e060405234801561000f575f5ffd5b50604051612754380380612754833981810160405281019061003191906108c6565b81815f8263ffffffff1603610072576040517fa602bc1d00000000000000000000000000000000000000000000000000000000815260040160405180910390fd5b60208263ffffffff16106100b2576040517fa0eb709e00000000000000000000000000000000000000000000000000000000815260040160405180910390fd5b8163ffffffff1660808163ffffffff16815250508073ffffffffffffffffffffffffffffffffffffffff1660a08173ffffffffffffffffffffffffffffffffffffffff168152505061010f8263ffffffff1661016160201b60201c565b5f5f5f81526020019081526020015f208190555050508273ffffffffffffffffffffffffffffffffffffffff1660c08173ffffffffffffffffffffffffffffffffffffffff1681525050505050610947565b5f5f8203610193577f0d823319708ab99ec915efd4f7e03d11ca1790918e8f04cd14100aceca2aa9ff5f1b90506107de565b600182036101c5577f170a9598425eb05eb8dc06986c6afc717811e874326a79576c02d338bdf14f135f1b90506107de565b600282036101f7577f273b1a40397b618dac2fc66ceb71399a3e1a60341e546e053cbfa5995e824caf5f1b90506107de565b60038203610229577f16bf9b1fb2dfa9d88cfb1752d6937a1594d257c2053dff3cb971016bfcffe2a15f1b90506107de565b6004820361025b577f1288271e1f93a29fa6e748b7468a77a9b8fc3db6b216ce5fc2601fc3e9bd6b365f1b90506107de565b6005820361028d577f1d47548adec1068354d163be4ffa348ca89f079b039c9191378584abd79edeca5f1b90506107de565b600682036102bf577f0b98a89e6827ef697b8fb2e280a2342d61db1eb5efc229f5f4a77fb333b80bef5f1b90506107de565b600782036102f1577f231555e37e6b206f43fdcd4d660c47442d76aab1ef552aef6db45f3f9cf2e9555f1b90506107de565b60088203610323577f03d0dc8c92e2844abcc5fdefe8cb67d93034de0862943990b09c6b8e3fa27a865f1b90506107de565b60098203610355577f1d51ac275f47f10e592b8e690fd3b28a76106893ac3e60cd7b2a3a443f4e83555f1b90506107de565b600a8203610387577f16b671eb844a8e4e463e820e26560357edee4ecfdbf5d7b0a28799911505088d5f1b90506107de565b600b82036103b9577f115ea0c2f132c5914d5bb737af6eed04115a3896f0d65e12e761ca560083da155f1b90506107de565b600c82036103eb577f139a5b42099806c76efb52da0ec1dde06a836bf6f87ef7ab4bac7d00637e28f05f1b90506107de565b600d820361041d577f0804853482335a6533eb6a4ddfc215a08026db413d247a7695e807e38debea8e5f1b90506107de565b600e820361044f577f2f0b264ab5f5630b591af93d93ec2dfed28eef017b251e40905cdf79836898035f1b90506107de565b600f8203610481577f170fc161bf1b9610bf196c173bdae82c4adfd93888dc317f5010822a3ba9ebee5f1b90506107de565b601082036104b3577f0b2e7665b17622cc0243b6fa35110aa7dd0ee3cc9409650172aa786ca59714395f1b90506107de565b601182036104e5577f12d5a033cbeff854c5ba0c5628ac4628104be6ab370699a1b2b4209e518b0ac55f1b90506107de565b60128203610517577f1bc59846eb7eafafc85ba9a99a89562763735322e4255b7c1788a8fe8b90bf5d5f1b90506107de565b60138203610549577f1b9421fbd79f6972a348a3dd4721781ec25a5d8d27342942ae00aba80a3904d45f1b90506107de565b6014820361057b577f087fde1c4c9c27c347f347083139eee8759179d255ec8381c02298d3d6ccd2335f1b90506107de565b601582036105ad577f1e26b1884cb500b5e6bbfdeedbdca34b961caf3fa9839ea794bfc7f87d10b3f15f1b90506107de565b601682036105df577f09fc1a538b88bda55a53253c62c153e67e8289729afd9b8bfd3f46f5eecd5a725f1b90506107de565b60178203610611577f14cd0edec3423652211db5210475a230ca4771cd1e45315bcd6ea640f14077e25f1b90506107de565b60188203610643577f1d776a76bc76f4305ef0b0b27a58a9565864fe1b9f2a198e8247b3e599e036ca5f1b90506107de565b60198203610675577f1f93e3103fed2d3bd056c3ac49b4a0728578be33595959788fa25514cdb5d42f5f1b90506107de565b601a82036106a7577f138b0576ee7346fb3f6cfb632f92ae206395824b9333a183c15470404c977a3b5f1b90506107de565b601b82036106d9577f0745de8522abfcd24bd50875865592f73a190070b4cb3d8976e3dbff8fdb7f3d5f1b90506107de565b601c820361070b577f2ffb8c798b9dd2645e9187858cb92a86c86dcd1138f5d610c33df2696f5f68605f1b90506107de565b601d820361073d577f2612a1395168260c9999287df0e3c3f1b0d8e008e90cd15941e4c2df08a68a5a5f1b90506107de565b601e820361076f577f10ebedce66a910039c8edb2cd832d6a9857648ccff5e99b5d08009b44b088edf5f1b90506107de565b601f82036107a1577f213fb841f9de06958cf4403477bdbff7c59d6249daabfee147f853db7c8080825f1b90506107de565b816040517f76de02380000000000000000000000000000000000000000000000000000000081526004016107d5919061092e565b60405180910390fd5b919050565b5f5ffd5b5f73ffffffffffffffffffffffffffffffffffffffff82169050919050565b5f610810826107e7565b9050919050565b5f61082182610806565b9050919050565b61083181610817565b811461083b575f5ffd5b50565b5f8151905061084c81610828565b92915050565b5f63ffffffff82169050919050565b61086a81610852565b8114610874575f5ffd5b50565b5f8151905061088581610861565b92915050565b5f61089582610806565b9050919050565b6108a58161088b565b81146108af575f5ffd5b50565b5f815190506108c08161089c565b92915050565b5f5f5f606084860312156108dd576108dc6107e3565b5b5f6108ea8682870161083e565b93505060206108fb86828701610877565b925050604061090c868287016108b2565b9150509250925092565b5f819050919050565b61092881610916565b82525050565b5f6020820190506109415f83018461091f565b92915050565b60805160a05160c051611dc761098d5f395f81816105c901526108fe01525f81816103f1015261111c01525f818161041501528181610fd401526110710152611dc75ff3fe6080604052600436106100c1575f3560e01c80638b01429d1161007e578063cd87a3b411610058578063cd87a3b414610253578063db9753a01461027d578063e8295588146102a7578063ed7cf2df146102e3576100c1565b80638b01429d146101e5578063b130eaa61461020f578063b214faa514610237576100c1565b806357f65706146100c557806359f41a81146100ef5780636d9833e314610119578063705f032f1461015557806373d732021461017f57806376020711146101a9575b5f5ffd5b3480156100d0575f5ffd5b506100d961031f565b6040516100e69190611328565b60405180910390f35b3480156100fa575f5ffd5b50610103610334565b6040516101109190611328565b60405180910390f35b348015610124575f5ffd5b5061013f600480360381019061013a9190611385565b61034a565b60405161014c91906113ca565b60405180910390f35b348015610160575f5ffd5b506101696103ef565b604051610176919061145d565b60405180910390f35b34801561018a575f5ffd5b50610193610413565b6040516101a09190611328565b60405180910390f35b3480156101b4575f5ffd5b506101cf60048036038101906101ca91906114a9565b610437565b6040516101dc91906114e3565b60405180910390f35b3480156101f0575f5ffd5b506101f961044b565b604051610206919061150b565b60405180910390f35b34801561021a575f5ffd5b506102356004803603810190610230919061169b565b610456565b005b610251600480360381019061024c9190611385565b6107d0565b005b34801561025e575f5ffd5b506102676108f7565b6040516102749190611328565b60405180910390f35b348015610288575f5ffd5b506102916108fc565b60405161029e919061173b565b60405180910390f35b3480156102b2575f5ffd5b506102cd60048036038101906102c891906114a9565b610920565b6040516102da91906114e3565b60405180910390f35b3480156102ee575f5ffd5b50610309600480360381019061030491906114a9565b610fa2565b60405161031691906114e3565b60405180910390f35b60015f9054906101000a900463ffffffff1681565b600160049054906101000a900463ffffffff1681565b5f5f60015f9054906101000a900463ffffffff1690505f8190505f5f1b8403610377575f925050506103ea565b5b835f5f8363ffffffff1681526020019081526020015f2054036103a0576001925050506103ea565b5f8163ffffffff16036103b257601e90505b80806103bd90611781565b91505060015f9054906101000a900463ffffffff1663ffffffff168163ffffffff1603610378575f925050505b919050565b7f000000000000000000000000000000000000000000000000000000000000000081565b7f000000000000000000000000000000000000000000000000000000000000000081565b5f602052805f5260405f205f915090505481565b66038d7ea4c6800081565b61045f8361034a565b6104a057826040517f933bc3d800000000000000000000000000000000000000000000000000000000815260040161049791906114e3565b60405180910390fd5b60235f8381526020019081526020015f205f9054906101000a900460ff161561050057816040517fce3682c60000000000000000000000000000000000000000000000000000000081526004016104f791906114e3565b60405180910390fd5b5f600367ffffffffffffffff81111561051c5761051b61153c565b5b60405190808252806020026020018201604052801561054a5781602001602082028036833780820191505090505b50905083815f81518110610561576105606117a8565b5b6020026020010181815250508281600181518110610582576105816117a8565b5b6020026020010181815250508173ffffffffffffffffffffffffffffffffffffffff165f1b816002815181106105bb576105ba6117a8565b5b6020026020010181815250507f000000000000000000000000000000000000000000000000000000000000000073ffffffffffffffffffffffffffffffffffffffff1663ea50d0e486836040518363ffffffff1660e01b81526004016106229291906118ec565b602060405180830381865afa15801561063d573d5f5f3e3d5ffd5b505050506040513d601f19601f82011682018060405250810190610661919061194b565b610697576040517fbb27f11200000000000000000000000000000000000000000000000000000000815260040160405180910390fd5b600160235f8581526020019081526020015f205f6101000a81548160ff0219169083151502179055505f8273ffffffffffffffffffffffffffffffffffffffff1666038d7ea4c680006040516106ec906119a3565b5f6040518083038185875af1925050503d805f8114610726576040519150601f19603f3d011682016040523d82523d5f602084013e61072b565b606091505b505090508061077a578266038d7ea4c680006040517f9692bf2d0000000000000000000000000000000000000000000000000000000081526004016107719291906119d7565b60405180910390fd5b8273ffffffffffffffffffffffffffffffffffffffff167f0ce490531f6c8ae2f1ff174643bc8b7ed5e52987ab50dc1e8f33655d2cd8c90b856040516107c091906114e3565b60405180910390a2505050505050565b60225f8281526020019081526020015f205f9054906101000a900460ff161561083057806040517f095eec1500000000000000000000000000000000000000000000000000000000815260040161082791906114e3565b60405180910390fd5b66038d7ea4c680003414610884573466038d7ea4c680006040517fe9de9fcd00000000000000000000000000000000000000000000000000000000815260040161087b9291906119fe565b60405180910390fd5b5f61088e82610fbb565b9050600160225f8481526020019081526020015f205f6101000a81548160ff021916908315150217905550817fa945e51eec50ab98c161376f0db4cf2aeba3ec92755fe2fcd388bdbbb80ff19682426040516108eb929190611a25565b60405180910390a25050565b601e81565b7f000000000000000000000000000000000000000000000000000000000000000081565b5f5f8203610952577f0d823319708ab99ec915efd4f7e03d11ca1790918e8f04cd14100aceca2aa9ff5f1b9050610f9d565b60018203610984577f170a9598425eb05eb8dc06986c6afc717811e874326a79576c02d338bdf14f135f1b9050610f9d565b600282036109b6577f273b1a40397b618dac2fc66ceb71399a3e1a60341e546e053cbfa5995e824caf5f1b9050610f9d565b600382036109e8577f16bf9b1fb2dfa9d88cfb1752d6937a1594d257c2053dff3cb971016bfcffe2a15f1b9050610f9d565b60048203610a1a577f1288271e1f93a29fa6e748b7468a77a9b8fc3db6b216ce5fc2601fc3e9bd6b365f1b9050610f9d565b60058203610a4c577f1d47548adec1068354d163be4ffa348ca89f079b039c9191378584abd79edeca5f1b9050610f9d565b60068203610a7e577f0b98a89e6827ef697b8fb2e280a2342d61db1eb5efc229f5f4a77fb333b80bef5f1b9050610f9d565b60078203610ab0577f231555e37e6b206f43fdcd4d660c47442d76aab1ef552aef6db45f3f9cf2e9555f1b9050610f9d565b60088203610ae2577f03d0dc8c92e2844abcc5fdefe8cb67d93034de0862943990b09c6b8e3fa27a865f1b9050610f9d565b60098203610b14577f1d51ac275f47f10e592b8e690fd3b28a76106893ac3e60cd7b2a3a443f4e83555f1b9050610f9d565b600a8203610b46577f16b671eb844a8e4e463e820e26560357edee4ecfdbf5d7b0a28799911505088d5f1b9050610f9d565b600b8203610b78577f115ea0c2f132c5914d5bb737af6eed04115a3896f0d65e12e761ca560083da155f1b9050610f9d565b600c8203610baa577f139a5b42099806c76efb52da0ec1dde06a836bf6f87ef7ab4bac7d00637e28f05f1b9050610f9d565b600d8203610bdc577f0804853482335a6533eb6a4ddfc215a08026db413d247a7695e807e38debea8e5f1b9050610f9d565b600e8203610c0e577f2f0b264ab5f5630b591af93d93ec2dfed28eef017b251e40905cdf79836898035f1b9050610f9d565b600f8203610c40577f170fc161bf1b9610bf196c173bdae82c4adfd93888dc317f5010822a3ba9ebee5f1b9050610f9d565b60108203610c72577f0b2e7665b17622cc0243b6fa35110aa7dd0ee3cc9409650172aa786ca59714395f1b9050610f9d565b60118203610ca4577f12d5a033cbeff854c5ba0c5628ac4628104be6ab370699a1b2b4209e518b0ac55f1b9050610f9d565b60128203610cd6577f1bc59846eb7eafafc85ba9a99a89562763735322e4255b7c1788a8fe8b90bf5d5f1b9050610f9d565b60138203610d08577f1b9421fbd79f6972a348a3dd4721781ec25a5d8d27342942ae00aba80a3904d45f1b9050610f9d565b60148203610d3a577f087fde1c4c9c27c347f347083139eee8759179d255ec8381c02298d3d6ccd2335f1b9050610f9d565b60158203610d6c577f1e26b1884cb500b5e6bbfdeedbdca34b961caf3fa9839ea794bfc7f87d10b3f15f1b9050610f9d565b60168203610d9e577f09fc1a538b88bda55a53253c62c153e67e8289729afd9b8bfd3f46f5eecd5a725f1b9050610f9d565b60178203610dd0577f14cd0edec3423652211db5210475a230ca4771cd1e45315bcd6ea640f14077e25f1b9050610f9d565b60188203610e02577f1d776a76bc76f4305ef0b0b27a58a9565864fe1b9f2a198e8247b3e599e036ca5f1b9050610f9d565b60198203610e34577f1f93e3103fed2d3bd056c3ac49b4a0728578be33595959788fa25514cdb5d42f5f1b9050610f9d565b601a8203610e66577f138b0576ee7346fb3f6cfb632f92ae206395824b9333a183c15470404c977a3b5f1b9050610f9d565b601b8203610e98577f0745de8522abfcd24bd50875865592f73a190070b4cb3d8976e3dbff8fdb7f3d5f1b9050610f9d565b601c8203610eca577f2ffb8c798b9dd2645e9187858cb92a86c86dcd1138f5d610c33df2696f5f68605f1b9050610f9d565b601d8203610efc577f2612a1395168260c9999287df0e3c3f1b0d8e008e90cd15941e4c2df08a68a5a5f1b9050610f9d565b601e8203610f2e577f10ebedce66a910039c8edb2cd832d6a9857648ccff5e99b5d08009b44b088edf5f1b9050610f9d565b601f8203610f60577f213fb841f9de06958cf4403477bdbff7c59d6249daabfee147f853db7c8080825f1b9050610f9d565b816040517f76de0238000000000000000000000000000000000000000000000000000000008152600401610f94919061150b565b60405180910390fd5b919050565b60028160208110610fb1575f80fd5b015f915090505481565b5f5f600160049054906101000a900463ffffffff1690507f00000000000000000000000000000000000000000000000000000000000000006002610fff9190611b7b565b63ffffffff168163ffffffff161061104e57806040517f95d903cc0000000000000000000000000000000000000000000000000000000081526004016110459190611328565b60405180910390fd5b5f600160049054906101000a900463ffffffff1690505f8490505f5f5f5f90505b7f000000000000000000000000000000000000000000000000000000000000000063ffffffff168163ffffffff1610156111e7575f6002866110b19190611bd6565b63ffffffff16036110f5578392506110ce8163ffffffff16610920565b91508360028263ffffffff16602081106110eb576110ea6117a8565b5b0181905550611117565b60028163ffffffff166020811061110f5761110e6117a8565b5b015492508391505b6111c97f000000000000000000000000000000000000000000000000000000000000000073ffffffffffffffffffffffffffffffffffffffff1663055d8d5461115f8661128a565b6111688661128a565b6040518363ffffffff1660e01b8152600401611185929190611c36565b602060405180830381865afa1580156111a0573d5f5f3e3d5ffd5b505050506040513d601f19601f820116820180604052508101906111c49190611c87565b61129c565b93506002856111d89190611cb2565b9450808060010191505061106f565b505f601e6001805f9054906101000a900463ffffffff166112089190611ce2565b6112129190611bd6565b90508060015f6101000a81548163ffffffff021916908363ffffffff160217905550835f5f8363ffffffff1681526020019081526020015f208190555060018661125c9190611ce2565b600160046101000a81548163ffffffff021916908363ffffffff160217905550859650505050505050919050565b5f819050611297816112a5565b919050565b5f819050919050565b7f30644e72e131a029b85045b68181585d2833e84879b9709143e1f593f00000018110611307576040517f08c379a00000000000000000000000000000000000000000000000000000000081526004016112fe90611d73565b60405180910390fd5b50565b5f63ffffffff82169050919050565b6113228161130a565b82525050565b5f60208201905061133b5f830184611319565b92915050565b5f604051905090565b5f5ffd5b5f5ffd5b5f819050919050565b61136481611352565b811461136e575f5ffd5b50565b5f8135905061137f8161135b565b92915050565b5f6020828403121561139a5761139961134a565b5b5f6113a784828501611371565b91505092915050565b5f8115159050919050565b6113c4816113b0565b82525050565b5f6020820190506113dd5f8301846113bb565b92915050565b5f73ffffffffffffffffffffffffffffffffffffffff82169050919050565b5f819050919050565b5f61142561142061141b846113e3565b611402565b6113e3565b9050919050565b5f6114368261140b565b9050919050565b5f6114478261142c565b9050919050565b6114578161143d565b82525050565b5f6020820190506114705f83018461144e565b92915050565b5f819050919050565b61148881611476565b8114611492575f5ffd5b50565b5f813590506114a38161147f565b92915050565b5f602082840312156114be576114bd61134a565b5b5f6114cb84828501611495565b91505092915050565b6114dd81611352565b82525050565b5f6020820190506114f65f8301846114d4565b92915050565b61150581611476565b82525050565b5f60208201905061151e5f8301846114fc565b92915050565b5f5ffd5b5f5ffd5b5f601f19601f8301169050919050565b7f4e487b71000000000000000000000000000000000000000000000000000000005f52604160045260245ffd5b6115728261152c565b810181811067ffffffffffffffff821117156115915761159061153c565b5b80604052505050565b5f6115a3611341565b90506115af8282611569565b919050565b5f67ffffffffffffffff8211156115ce576115cd61153c565b5b6115d78261152c565b9050602081019050919050565b828183375f83830152505050565b5f6116046115ff846115b4565b61159a565b9050828152602081018484840111156116205761161f611528565b5b61162b8482856115e4565b509392505050565b5f82601f83011261164757611646611524565b5b81356116578482602086016115f2565b91505092915050565b5f61166a826113e3565b9050919050565b61167a81611660565b8114611684575f5ffd5b50565b5f8135905061169581611671565b92915050565b5f5f5f5f608085870312156116b3576116b261134a565b5b5f85013567ffffffffffffffff8111156116d0576116cf61134e565b5b6116dc87828801611633565b94505060206116ed87828801611371565b93505060406116fe87828801611371565b925050606061170f87828801611687565b91505092959194509250565b5f6117258261142c565b9050919050565b6117358161171b565b82525050565b5f60208201905061174e5f83018461172c565b92915050565b7f4e487b71000000000000000000000000000000000000000000000000000000005f52601160045260245ffd5b5f61178b8261130a565b91505f820361179d5761179c611754565b5b600182039050919050565b7f4e487b71000000000000000000000000000000000000000000000000000000005f52603260045260245ffd5b5f81519050919050565b5f82825260208201905092915050565b8281835e5f83830152505050565b5f611807826117d5565b61181181856117df565b93506118218185602086016117ef565b61182a8161152c565b840191505092915050565b5f81519050919050565b5f82825260208201905092915050565b5f819050602082019050919050565b61186781611352565b82525050565b5f611878838361185e565b60208301905092915050565b5f602082019050919050565b5f61189a82611835565b6118a4818561183f565b93506118af8361184f565b805f5b838110156118df5781516118c6888261186d565b97506118d183611884565b9250506001810190506118b2565b5085935050505092915050565b5f6040820190508181035f83015261190481856117fd565b905081810360208301526119188184611890565b90509392505050565b61192a816113b0565b8114611934575f5ffd5b50565b5f8151905061194581611921565b92915050565b5f602082840312156119605761195f61134a565b5b5f61196d84828501611937565b91505092915050565b5f81905092915050565b50565b5f61198e5f83611976565b915061199982611980565b5f82019050919050565b5f6119ad82611983565b9150819050919050565b5f6119c18261142c565b9050919050565b6119d1816119b7565b82525050565b5f6040820190506119ea5f8301856119c8565b6119f760208301846114fc565b9392505050565b5f604082019050611a115f8301856114fc565b611a1e60208301846114fc565b9392505050565b5f604082019050611a385f830185611319565b611a4560208301846114fc565b9392505050565b5f8160011c9050919050565b5f5f8291508390505b6001851115611aa157808604811115611a7d57611a7c611754565b5b6001851615611a8c5780820291505b8081029050611a9a85611a4c565b9450611a61565b94509492505050565b5f82611ab95760019050611b74565b81611ac6575f9050611b74565b8160018114611adc5760028114611ae657611b15565b6001915050611b74565b60ff841115611af857611af7611754565b5b8360020a915084821115611b0f57611b0e611754565b5b50611b74565b5060208310610133831016604e8410600b8410161715611b4a5782820a905083811115611b4557611b44611754565b5b611b74565b611b578484846001611a58565b92509050818404811115611b6e57611b6d611754565b5b81810290505b9392505050565b5f611b858261130a565b9150611b908361130a565b9250611ba163ffffffff8484611aaa565b905092915050565b7f4e487b71000000000000000000000000000000000000000000000000000000005f52601260045260245ffd5b5f611be08261130a565b9150611beb8361130a565b925082611bfb57611bfa611ba9565b5b828206905092915050565b5f611c20611c1b611c1684611476565b611402565b611476565b9050919050565b611c3081611c06565b82525050565b5f604082019050611c495f830185611c27565b611c566020830184611c27565b9392505050565b611c6681611476565b8114611c70575f5ffd5b50565b5f81519050611c8181611c5d565b92915050565b5f60208284031215611c9c57611c9b61134a565b5b5f611ca984828501611c73565b91505092915050565b5f611cbc8261130a565b9150611cc78361130a565b925082611cd757611cd6611ba9565b5b828204905092915050565b5f611cec8261130a565b9150611cf78361130a565b9250828201905063ffffffff811115611d1357611d12611754565b5b92915050565b5f82825260208201905092915050565b7f4669656c643a20696e70757420697320746f6f206c61726765000000000000005f82015250565b5f611d5d601983611d19565b9150611d6882611d29565b602082019050919050565b5f6020820190508181035f830152611d8a81611d51565b905091905056fea2646970667358221220ca1a1f1a4ba7ade74803aab8a30a46b2d2250ea914276411b5d6e446a6c0f78064736f6c634300081e0033","linkReferences":{}},"methodIdentifiers":{"DENOMINATION()":"8b01429d","ROOT_HISTORY_SIZE()":"cd87a3b4","deposit(bytes32)":"b214faa5","i_depth()":"73d73202","i_hasher()":"705f032f","i_verifier()":"db9753a0","isKnownRoot(bytes32)":"6d9833e3","s_cachedSubtrees(uint256)":"ed7cf2df","s_currentRootIndex()":"57f65706","s_nextLeafIndex()":"59f41a81","s_root(uint256)":"76020711","withdraw(bytes,bytes32,bytes32,address)":"b130eaa6","zeros(uint256)":"e8295588"},"id":23}